{
  "_format": "hh-sol-artifact-1",
  "contractName": "TokenManagerERC1155",
  "sourceName": "contracts/schain/TokenManagers/TokenManagerERC1155.sol",
  "abi": [
    {
      "anonymous": false,
      "inputs": [
        {
          "indexed": false,
          "internalType": "address",
          "name": "oldValue",
          "type": "address"
        },
        {
          "indexed": false,
          "internalType": "address",
          "name": "newValue",
          "type": "address"
        }
      ],
      "name": "DepositBoxWasChanged",
      "type": "event"
    },
    {
      "anonymous": false,
      "inputs": [
        {
          "indexed": true,
          "internalType": "address",
          "name": "erc1155OnMainnet",
          "type": "address"
        },
        {
          "indexed": true,
          "internalType": "address",
          "name": "erc1155OnSchain",
          "type": "address"
        }
      ],
      "name": "ERC1155TokenAdded",
      "type": "event"
    },
    {
      "anonymous": false,
      "inputs": [
        {
          "indexed": true,
          "internalType": "address",
          "name": "erc1155OnMainnet",
          "type": "address"
        },
        {
          "indexed": true,
          "internalType": "address",
          "name": "erc1155OnSchain",
          "type": "address"
        }
      ],
      "name": "ERC1155TokenCreated",
      "type": "event"
    },
    {
      "anonymous": false,
      "inputs": [
        {
          "indexed": true,
          "internalType": "address",
          "name": "erc1155OnMainnet",
          "type": "address"
        },
        {
          "indexed": true,
          "internalType": "address",
          "name": "erc1155OnSchain",
          "type": "address"
        },
        {
          "indexed": false,
          "internalType": "uint256[]",
          "name": "ids",
          "type": "uint256[]"
        },
        {
          "indexed": false,
          "internalType": "uint256[]",
          "name": "amounts",
          "type": "uint256[]"
        }
      ],
      "name": "ERC1155TokenReceived",
      "type": "event"
    },
    {
      "anonymous": false,
      "inputs": [
        {
          "indexed": true,
          "internalType": "bytes32",
          "name": "role",
          "type": "bytes32"
        },
        {
          "indexed": true,
          "internalType": "bytes32",
          "name": "previousAdminRole",
          "type": "bytes32"
        },
        {
          "indexed": true,
          "internalType": "bytes32",
          "name": "newAdminRole",
          "type": "bytes32"
        }
      ],
      "name": "RoleAdminChanged",
      "type": "event"
    },
    {
      "anonymous": false,
      "inputs": [
        {
          "indexed": true,
          "internalType": "bytes32",
          "name": "role",
          "type": "bytes32"
        },
        {
          "indexed": true,
          "internalType": "address",
          "name": "account",
          "type": "address"
        },
        {
          "indexed": true,
          "internalType": "address",
          "name": "sender",
          "type": "address"
        }
      ],
      "name": "RoleGranted",
      "type": "event"
    },
    {
      "anonymous": false,
      "inputs": [
        {
          "indexed": true,
          "internalType": "bytes32",
          "name": "role",
          "type": "bytes32"
        },
        {
          "indexed": true,
          "internalType": "address",
          "name": "account",
          "type": "address"
        },
        {
          "indexed": true,
          "internalType": "address",
          "name": "sender",
          "type": "address"
        }
      ],
      "name": "RoleRevoked",
      "type": "event"
    },
    {
      "inputs": [],
      "name": "AUTOMATIC_DEPLOY_ROLE",
      "outputs": [
        {
          "internalType": "bytes32",
          "name": "",
          "type": "bytes32"
        }
      ],
      "stateMutability": "view",
      "type": "function"
    },
    {
      "inputs": [],
      "name": "DEFAULT_ADMIN_ROLE",
      "outputs": [
        {
          "internalType": "bytes32",
          "name": "",
          "type": "bytes32"
        }
      ],
      "stateMutability": "view",
      "type": "function"
    },
    {
      "inputs": [],
      "name": "MAINNET_HASH",
      "outputs": [
        {
          "internalType": "bytes32",
          "name": "",
          "type": "bytes32"
        }
      ],
      "stateMutability": "view",
      "type": "function"
    },
    {
      "inputs": [],
      "name": "MAINNET_NAME",
      "outputs": [
        {
          "internalType": "string",
          "name": "",
          "type": "string"
        }
      ],
      "stateMutability": "view",
      "type": "function"
    },
    {
      "inputs": [],
      "name": "TOKEN_REGISTRAR_ROLE",
      "outputs": [
        {
          "internalType": "bytes32",
          "name": "",
          "type": "bytes32"
        }
      ],
      "stateMutability": "view",
      "type": "function"
    },
    {
      "inputs": [
        {
          "internalType": "address",
          "name": "erc1155OnMainnet",
          "type": "address"
        },
        {
          "internalType": "contract ERC1155OnChain",
          "name": "erc1155OnSchain",
          "type": "address"
        }
      ],
      "name": "addERC1155TokenByOwner",
      "outputs": [],
      "stateMutability": "nonpayable",
      "type": "function"
    },
    {
      "inputs": [
        {
          "internalType": "string",
          "name": "schainName",
          "type": "string"
        },
        {
          "internalType": "address",
          "name": "newTokenManager",
          "type": "address"
        }
      ],
      "name": "addTokenManager",
      "outputs": [],
      "stateMutability": "nonpayable",
      "type": "function"
    },
    {
      "inputs": [
        {
          "internalType": "contract ERC1155OnChain",
          "name": "",
          "type": "address"
        }
      ],
      "name": "addedClones",
      "outputs": [
        {
          "internalType": "bool",
          "name": "",
          "type": "bool"
        }
      ],
      "stateMutability": "view",
      "type": "function"
    },
    {
      "inputs": [],
      "name": "automaticDeploy",
      "outputs": [
        {
          "internalType": "bool",
          "name": "",
          "type": "bool"
        }
      ],
      "stateMutability": "view",
      "type": "function"
    },
    {
      "inputs": [
        {
          "internalType": "address",
          "name": "newDepositBox",
          "type": "address"
        }
      ],
      "name": "changeDepositBoxAddress",
      "outputs": [],
      "stateMutability": "nonpayable",
      "type": "function"
    },
    {
      "inputs": [
        {
          "internalType": "address",
          "name": "",
          "type": "address"
        }
      ],
      "name": "clonesErc1155",
      "outputs": [
        {
          "internalType": "contract ERC1155OnChain",
          "name": "",
          "type": "address"
        }
      ],
      "stateMutability": "view",
      "type": "function"
    },
    {
      "inputs": [],
      "name": "communityLocker",
      "outputs": [
        {
          "internalType": "contract CommunityLocker",
          "name": "",
          "type": "address"
        }
      ],
      "stateMutability": "view",
      "type": "function"
    },
    {
      "inputs": [],
      "name": "depositBox",
      "outputs": [
        {
          "internalType": "address",
          "name": "",
          "type": "address"
        }
      ],
      "stateMutability": "view",
      "type": "function"
    },
    {
      "inputs": [],
      "name": "disableAutomaticDeploy",
      "outputs": [],
      "stateMutability": "nonpayable",
      "type": "function"
    },
    {
      "inputs": [],
      "name": "enableAutomaticDeploy",
      "outputs": [],
      "stateMutability": "nonpayable",
      "type": "function"
    },
    {
      "inputs": [
        {
          "internalType": "address",
          "name": "contractOnMainnet",
          "type": "address"
        },
        {
          "internalType": "address",
          "name": "to",
          "type": "address"
        },
        {
          "internalType": "uint256",
          "name": "id",
          "type": "uint256"
        },
        {
          "internalType": "uint256",
          "name": "amount",
          "type": "uint256"
        }
      ],
      "name": "exitToMainERC1155",
      "outputs": [],
      "stateMutability": "nonpayable",
      "type": "function"
    },
    {
      "inputs": [
        {
          "internalType": "address",
          "name": "contractOnMainnet",
          "type": "address"
        },
        {
          "internalType": "address",
          "name": "to",
          "type": "address"
        },
        {
          "internalType": "uint256[]",
          "name": "ids",
          "type": "uint256[]"
        },
        {
          "internalType": "uint256[]",
          "name": "amounts",
          "type": "uint256[]"
        }
      ],
      "name": "exitToMainERC1155Batch",
      "outputs": [],
      "stateMutability": "nonpayable",
      "type": "function"
    },
    {
      "inputs": [
        {
          "internalType": "bytes32",
          "name": "role",
          "type": "bytes32"
        }
      ],
      "name": "getRoleAdmin",
      "outputs": [
        {
          "internalType": "bytes32",
          "name": "",
          "type": "bytes32"
        }
      ],
      "stateMutability": "view",
      "type": "function"
    },
    {
      "inputs": [
        {
          "internalType": "bytes32",
          "name": "role",
          "type": "bytes32"
        },
        {
          "internalType": "uint256",
          "name": "index",
          "type": "uint256"
        }
      ],
      "name": "getRoleMember",
      "outputs": [
        {
          "internalType": "address",
          "name": "",
          "type": "address"
        }
      ],
      "stateMutability": "view",
      "type": "function"
    },
    {
      "inputs": [
        {
          "internalType": "bytes32",
          "name": "role",
          "type": "bytes32"
        }
      ],
      "name": "getRoleMemberCount",
      "outputs": [
        {
          "internalType": "uint256",
          "name": "",
          "type": "uint256"
        }
      ],
      "stateMutability": "view",
      "type": "function"
    },
    {
      "inputs": [
        {
          "internalType": "bytes32",
          "name": "role",
          "type": "bytes32"
        },
        {
          "internalType": "address",
          "name": "account",
          "type": "address"
        }
      ],
      "name": "grantRole",
      "outputs": [],
      "stateMutability": "nonpayable",
      "type": "function"
    },
    {
      "inputs": [
        {
          "internalType": "bytes32",
          "name": "role",
          "type": "bytes32"
        },
        {
          "internalType": "address",
          "name": "account",
          "type": "address"
        }
      ],
      "name": "hasRole",
      "outputs": [
        {
          "internalType": "bool",
          "name": "",
          "type": "bool"
        }
      ],
      "stateMutability": "view",
      "type": "function"
    },
    {
      "inputs": [
        {
          "internalType": "string",
          "name": "schainName",
          "type": "string"
        }
      ],
      "name": "hasTokenManager",
      "outputs": [
        {
          "internalType": "bool",
          "name": "",
          "type": "bool"
        }
      ],
      "stateMutability": "view",
      "type": "function"
    },
    {
      "inputs": [
        {
          "internalType": "string",
          "name": "newChainName",
          "type": "string"
        },
        {
          "internalType": "contract MessageProxyForSchain",
          "name": "newMessageProxy",
          "type": "address"
        },
        {
          "internalType": "contract TokenManagerLinker",
          "name": "newIMALinker",
          "type": "address"
        },
        {
          "internalType": "contract CommunityLocker",
          "name": "newCommunityLocker",
          "type": "address"
        },
        {
          "internalType": "address",
          "name": "newDepositBox",
          "type": "address"
        }
      ],
      "name": "initialize",
      "outputs": [],
      "stateMutability": "nonpayable",
      "type": "function"
    },
    {
      "inputs": [
        {
          "internalType": "string",
          "name": "newSchainName",
          "type": "string"
        },
        {
          "internalType": "contract MessageProxyForSchain",
          "name": "newMessageProxy",
          "type": "address"
        },
        {
          "internalType": "contract TokenManagerLinker",
          "name": "newIMALinker",
          "type": "address"
        },
        {
          "internalType": "contract CommunityLocker",
          "name": "newCommunityLocker",
          "type": "address"
        },
        {
          "internalType": "address",
          "name": "newDepositBox",
          "type": "address"
        }
      ],
      "name": "initializeTokenManager",
      "outputs": [],
      "stateMutability": "nonpayable",
      "type": "function"
    },
    {
      "inputs": [],
      "name": "messageProxy",
      "outputs": [
        {
          "internalType": "contract MessageProxyForSchain",
          "name": "",
          "type": "address"
        }
      ],
      "stateMutability": "view",
      "type": "function"
    },
    {
      "inputs": [
        {
          "internalType": "bytes32",
          "name": "fromChainHash",
          "type": "bytes32"
        },
        {
          "internalType": "address",
          "name": "sender",
          "type": "address"
        },
        {
          "internalType": "bytes",
          "name": "data",
          "type": "bytes"
        }
      ],
      "name": "postMessage",
      "outputs": [
        {
          "internalType": "address",
          "name": "",
          "type": "address"
        }
      ],
      "stateMutability": "nonpayable",
      "type": "function"
    },
    {
      "inputs": [
        {
          "internalType": "string",
          "name": "schainName",
          "type": "string"
        }
      ],
      "name": "removeTokenManager",
      "outputs": [],
      "stateMutability": "nonpayable",
      "type": "function"
    },
    {
      "inputs": [
        {
          "internalType": "bytes32",
          "name": "role",
          "type": "bytes32"
        },
        {
          "internalType": "address",
          "name": "account",
          "type": "address"
        }
      ],
      "name": "renounceRole",
      "outputs": [],
      "stateMutability": "nonpayable",
      "type": "function"
    },
    {
      "inputs": [
        {
          "internalType": "bytes32",
          "name": "role",
          "type": "bytes32"
        },
        {
          "internalType": "address",
          "name": "account",
          "type": "address"
        }
      ],
      "name": "revokeRole",
      "outputs": [],
      "stateMutability": "nonpayable",
      "type": "function"
    },
    {
      "inputs": [],
      "name": "schainHash",
      "outputs": [
        {
          "internalType": "bytes32",
          "name": "",
          "type": "bytes32"
        }
      ],
      "stateMutability": "view",
      "type": "function"
    },
    {
      "inputs": [
        {
          "internalType": "bytes4",
          "name": "interfaceId",
          "type": "bytes4"
        }
      ],
      "name": "supportsInterface",
      "outputs": [
        {
          "internalType": "bool",
          "name": "",
          "type": "bool"
        }
      ],
      "stateMutability": "view",
      "type": "function"
    },
    {
      "inputs": [],
      "name": "tokenManagerLinker",
      "outputs": [
        {
          "internalType": "contract TokenManagerLinker",
          "name": "",
          "type": "address"
        }
      ],
      "stateMutability": "view",
      "type": "function"
    },
    {
      "inputs": [
        {
          "internalType": "bytes32",
          "name": "",
          "type": "bytes32"
        }
      ],
      "name": "tokenManagers",
      "outputs": [
        {
          "internalType": "address",
          "name": "",
          "type": "address"
        }
      ],
      "stateMutability": "view",
      "type": "function"
    },
    {
      "inputs": [
        {
          "internalType": "string",
          "name": "targetSchainName",
          "type": "string"
        },
        {
          "internalType": "address",
          "name": "contractOnMainnet",
          "type": "address"
        },
        {
          "internalType": "address",
          "name": "to",
          "type": "address"
        },
        {
          "internalType": "uint256",
          "name": "id",
          "type": "uint256"
        },
        {
          "internalType": "uint256",
          "name": "amount",
          "type": "uint256"
        }
      ],
      "name": "transferToSchainERC1155",
      "outputs": [],
      "stateMutability": "nonpayable",
      "type": "function"
    },
    {
      "inputs": [
        {
          "internalType": "string",
          "name": "targetSchainName",
          "type": "string"
        },
        {
          "internalType": "address",
          "name": "contractOnMainnet",
          "type": "address"
        },
        {
          "internalType": "address",
          "name": "to",
          "type": "address"
        },
        {
          "internalType": "uint256[]",
          "name": "ids",
          "type": "uint256[]"
        },
        {
          "internalType": "uint256[]",
          "name": "amounts",
          "type": "uint256[]"
        }
      ],
      "name": "transferToSchainERC1155Batch",
      "outputs": [],
      "stateMutability": "nonpayable",
      "type": "function"
    }
  ],
  "bytecode": "0x608060405234801561001057600080fd5b50616df9806100206000396000f3fe60806040523480156200001157600080fd5b5060043610620002495760003560e01c80636d611286116200013d578063b9581c5011620000bb578063cc5b715b1162000086578063cc5b715b146200056f578063d547741f1462000597578063dec2deb614620005ae578063e7ece22814620005c3578063edcc12b514620005da57600080fd5b8063b9581c501462000520578063c0e312dc146200052a578063ca15c8731462000541578063cb703bff146200055857600080fd5b806391d14854116200010857806391d1485414620004ac578063a217fddf14620004c3578063ade6867614620004cc578063aebaaca914620004e3578063b626a44f146200050957600080fd5b80636d61128614620004565780636d6c68e6146200046a578063884cee5a146200047e5780639010d07c146200049557600080fd5b806336568abe11620001cb57806350f44280116200019657806350f4428014620003b25780635492d3b514620003e85780635573b8b614620003ff5780636685bde514620004135780636ce681d2146200043f57600080fd5b806336568abe146200036357806339927cf9146200037a5780633b690b6b14620003915780633fa194ce146200039b57600080fd5b80630f1a8f7411620002185780630f1a8f7414620002b4578063248a9ca314620002f957806328c5e182146200032e5780632dc151de14620003385780632f2ff15d146200034c57600080fd5b806301ffc9a7146200024e578063029996b8146200027a578063066ee47f14620002865780630b885ac3146200029d575b600080fd5b620002656200025f36600462003185565b620005f1565b60405190151581526020015b60405180910390f35b620002846200061f565b005b620002846200029736600462003270565b62000677565b62000284620002ae366004620033b4565b62000831565b620002e0620002c5366004620030bf565b60ce602052600090815260409020546001600160a01b031681565b6040516001600160a01b03909116815260200162000271565b6200031f6200030a366004620030bf565b60009081526065602052604090206001015490565b60405190815260200162000271565b6200031f620008b7565b60ca54620002e0906001600160a01b031681565b620002846200035d366004620030d9565b62000902565b6200028462000374366004620030d9565b6200092d565b620002656200038b366004620031cf565b62000953565b6200031f60cc5481565b6200031f60008051602062006da483398151915281565b620003d96040518060400160405280600781526020016613585a5b9b995d60ca1b81525081565b604051620002719190620037df565b62000284620003f936600462003333565b620009b0565b60c954620002e0906001600160a01b031681565b620002e06200042436600462002f5f565b60cf602052600090815260409020546001600160a01b031681565b6200028462000450366004620033b4565b62000b5e565b60cd54620002e0906001600160a01b031681565b60cb54620002e0906001600160a01b031681565b620002e06200048f36600462003101565b62000d33565b620002e0620004a636600462003162565b62000f70565b62000265620004bd366004620030d9565b62000f91565b6200031f600081565b62000284620004dd36600462002f7f565b62000fbc565b62000265620004f436600462002f5f565b60d06020526000908152604090205460ff1681565b620002846200051a3660046200305d565b62001087565b6200028462001297565b620002846200053b366004620031cf565b620012e0565b6200031f62000552366004620030bf565b620013fe565b620002846200056936600462003214565b62001417565b6200031f7ffda70c2cc66a36c14884ee85424961f51b1d92b4494751699b6d105b3bcbcba881565b62000284620005a8366004620030d9565b6200156f565b60cd546200026590600160a01b900460ff1681565b62000284620005d436600462003012565b6200157b565b62000284620005eb36600462002f5f565b62001640565b60006001600160e01b03198216635a05180f60e01b148062000619575062000619826200175c565b92915050565b6200063a60008051602062006da48339815191523362000f91565b620006625760405162461bcd60e51b815260040162000659906200387b565b60405180910390fd5b60cd805460ff60a01b1916600160a01b179055565b85858080601f0160208091040260200160405190810160405280939291908181526020018383808284376000920182905250604051889450909250620006c39150849060200162003650565b60408051601f1981840301815282825280516020918201208383018352600784526613585a5b9b995d60ca1b8483015291519193506200070592910162003650565b604051602081830303815290604052805190602001208114156200073d5760405162461bcd60e51b815260040162000659906200382b565b6001600160a01b038216620007955760405162461bcd60e51b815260206004820152601a60248201527f496e636f72726563742072656365697665722061646472657373000000000000604482015260640162000659565b600081815260ce60205260409020546001600160a01b0316620007cc5760405162461bcd60e51b81526004016200065990620037f4565b60008989604051602001620007e392919062003640565b60408051601f198184030181529181528151602092830120600081815260ce909352912054909150620008259082906001600160a01b03168a8a8a8a62001793565b50505050505050505050565b600054610100900460ff16806200084b575060005460ff16155b6200086a5760405162461bcd60e51b81526004016200065990620038bc565b600054610100900460ff161580156200088d576000805461ffff19166101011790555b6200089c868686868662000b5e565b8015620008af576000805461ff00191690555b505050505050565b6040518060400160405280600781526020016613585a5b9b995d60ca1b815250604051602001620008e9919062003650565b6040516020818303038152906040528051906020012081565b6200090e8282620019af565b6000828152609760205260409020620009289082620019d9565b505050565b620009398282620019f0565b600082815260976020526040902062000928908262001a72565b6000806001600160a01b031660ce600085856040516020016200097892919062003640565b60408051808303601f19018152918152815160209283012083529082019290925201600020546001600160a01b031614159392505050565b85858080601f0160208091040260200160405190810160405280939291908181526020018383808284376000920182905250604051889450909250620009fc9150849060200162003650565b60408051601f1981840301815282825280516020918201208383018352600784526613585a5b9b995d60ca1b84830152915191935062000a3e92910162003650565b6040516020818303038152906040528051906020012081141562000a765760405162461bcd60e51b815260040162000659906200382b565b6001600160a01b03821662000ace5760405162461bcd60e51b815260206004820152601a60248201527f496e636f72726563742072656365697665722061646472657373000000000000604482015260640162000659565b600081815260ce60205260409020546001600160a01b031662000b055760405162461bcd60e51b81526004016200065990620037f4565b6000898960405160200162000b1c92919062003640565b60408051601f198184030181529181528151602092830120600081815260ce909352912054909150620008259082906001600160a01b03168a8a8a8a62001a89565b600054610100900460ff168062000b78575060005460ff16155b62000b975760405162461bcd60e51b81526004016200065990620038bc565b600054610100900460ff1615801562000bba576000805461ffff19166101011790555b6001600160a01b03821662000c125760405162461bcd60e51b815260206004820181905260248201527f4465706f736974426f7820616464726573732068617320746f20626520736574604482015260640162000659565b62000c1c62001c33565b62000c2960003362001ccd565b62000c4460008051602062006da48339815191523362001ccd565b62000c707ffda70c2cc66a36c14884ee85424961f51b1d92b4494751699b6d105b3bcbcba83362001ccd565b8560405160200162000c83919062003650565b60408051601f19818403018152828252805160209182012060cc5560c980546001600160a01b038a81166001600160a01b03199283161790925560ca80548a841690831617905560cb805489841690831617905560cd8054928816929091168217905560008452908301527fc968af77923193016f61d74ba6827296db5e1f37ec4fab3ad1ef20e193395e59910160405180910390a18015620008af576000805461ff0019169055505050505050565b60c9546000906001600160a01b0316331462000d925760405162461bcd60e51b815260206004820152601c60248201527f53656e646572206973206e6f742061204d65737361676550726f787900000000604482015260640162000659565b848460cc54821415801562000e2657506040518060400160405280600781526020016613585a5b9b995d60ca1b81525060405160200162000dd4919062003650565b60405160208183030381529060405280519060200120821462000e1457600082815260ce60205260409020546001600160a01b0382811691161462000e26565b60cd546001600160a01b038281169116145b62000e745760405162461bcd60e51b815260206004820152601b60248201527f526563656976657220636861696e20697320696e636f72726563740000000000604482015260640162000659565b600062000e82868662001cd9565b90506000600982600c81111562000e9d5762000e9d62003b7a565b148062000ebe5750600a82600c81111562000ebc5762000ebc62003b7a565b145b1562000ed85762000ed0878762001d2d565b905062000f64565b600b82600c81111562000eef5762000eef62003b7a565b148062000f105750600c82600c81111562000f0e5762000f0e62003b7a565b145b1562000f225762000ed0878762002004565b60405162461bcd60e51b815260206004820152601660248201527526b2b9b9b0b3b2aa3cb8329034b9903ab735b737bbb760511b604482015260640162000659565b98975050505050505050565b600082815260976020526040812062000f8a908362002288565b9392505050565b60009182526065602090815260408084206001600160a01b0393909316845291905290205460ff1690565b60cb546040516311be333d60e11b81526001600160a01b0385811660048301529091169063237c667a90602401600060405180830381600087803b1580156200100457600080fd5b505af115801562001019573d6000803e3d6000fd5b50505050620010816040518060400160405280600781526020016613585a5b9b995d60ca1b81525060405160200162001053919062003650565b60408051601f19818403018152919052805160209091012060cd546001600160a01b03168686868662001793565b50505050565b620010b37ffda70c2cc66a36c14884ee85424961f51b1d92b4494751699b6d105b3bcbcba83362000f91565b620011015760405162461bcd60e51b815260206004820181905260248201527f544f4b454e5f5245474953545241525f524f4c45206973207265717569726564604482015260640162000659565b6001600160a01b0381163b6200115a5760405162461bcd60e51b815260206004820152601f60248201527f476976656e2061646472657373206973206e6f74206120636f6e747261637400604482015260640162000659565b6001600160a01b03828116600090815260cf60205260409020541615620011bd5760405162461bcd60e51b8152602060048201526016602482015275436f756c64206e6f742072656c696e6b20636c6f6e6560501b604482015260640162000659565b6001600160a01b038116600090815260d0602052604090205460ff1615620012285760405162461bcd60e51b815260206004820152601760248201527f436c6f6e652077617320616c7265616479206164646564000000000000000000604482015260640162000659565b6001600160a01b03828116600081815260cf6020908152604080832080546001600160a01b031916958716958617905584835260d0909152808220805460ff19166001179055517f096b3e2c36bc263e90f7577e70dc47b6536fc8d85d467d54f61f91c2ca091c519190a35050565b620012b260008051602062006da48339815191523362000f91565b620012d15760405162461bcd60e51b815260040162000659906200387b565b60cd805460ff60a01b19169055565b60ca546001600160a01b03163314806200130257506200130260003362000f91565b620013485760405162461bcd60e51b81526020600482015260156024820152742737ba1030baba3437b934bd32b21031b0b63632b960591b604482015260640162000659565b600082826040516020016200135f92919062003640565b60408051601f198184030181529181528151602092830120600081815260ce9093529120549091506001600160a01b0316620013de5760405162461bcd60e51b815260206004820152601860248201527f546f6b656e204d616e61676572206973206e6f74207365740000000000000000604482015260640162000659565b600090815260ce6020526040902080546001600160a01b03191690555050565b6000818152609760205260408120620006199062002296565b60ca546001600160a01b03163314806200143957506200143960003362000f91565b6200147f5760405162461bcd60e51b81526020600482015260156024820152742737ba1030baba3437b934bd32b21031b0b63632b960591b604482015260640162000659565b600083836040516020016200149692919062003640565b60408051601f198184030181529181528151602092830120600081815260ce9093529120549091506001600160a01b031615620015165760405162461bcd60e51b815260206004820152601c60248201527f546f6b656e204d616e6167657220697320616c72656164792073657400000000604482015260640162000659565b6001600160a01b0382166200153f5760405162461bcd60e51b81526004016200065990620037f4565b600090815260ce6020526040902080546001600160a01b0319166001600160a01b03929092169190911790555050565b620009398282620022a1565b60cb546040516311be333d60e11b81526001600160a01b0385811660048301529091169063237c667a90602401600060405180830381600087803b158015620015c357600080fd5b505af1158015620015d8573d6000803e3d6000fd5b50505050620010816040518060400160405280600781526020016613585a5b9b995d60ca1b81525060405160200162001612919062003650565b60408051601f19818403018152919052805160209091012060cd546001600160a01b03168686868662001a89565b6200164d60003362000f91565b6200169b5760405162461bcd60e51b815260206004820152601e60248201527f44454641554c545f41444d494e5f524f4c452069732072657175697265640000604482015260640162000659565b6001600160a01b038116620016f35760405162461bcd60e51b815260206004820181905260248201527f4465706f736974426f7820616464726573732068617320746f20626520736574604482015260640162000659565b60cd54604080516001600160a01b03928316815291831660208301527fc968af77923193016f61d74ba6827296db5e1f37ec4fab3ad1ef20e193395e59910160405180910390a160cd80546001600160a01b0319166001600160a01b0392909216919091179055565b60006001600160e01b03198216637965db0b60e01b14806200061957506301ffc9a760e01b6001600160e01b031983161462000619565b6001600160a01b03848116600090815260cf602052604090205416803b620017f95760405162461bcd60e51b81526020600482015260186024820152772737903a37b5b2b71031b637b7329037b71039b1b430b4b760411b604482015260640162000659565b60405163e985e9c560e01b81523360048201523060248201526001600160a01b0382169063e985e9c59060440160206040518083038186803b1580156200183f57600080fd5b505afa15801562001854573d6000803e3d6000fd5b505050506040513d601f19601f820116820180604052508101906200187a91906200309b565b620018c45760405162461bcd60e51b81526020600482015260196024820152782737ba1030b63637bbb2b21022a92198989a9a902a37b5b2b760391b604482015260640162000659565b604051631ac8311560e21b81526001600160a01b03821690636b20c45490620018f690339087908790600401620036e7565b600060405180830381600087803b1580156200191157600080fd5b505af115801562001926573d6000803e3d6000fd5b5050505060006200193a86868686620022cb565b60c954604051634a24490160e11b81529192506001600160a01b03169063944892029062001971908b908b908690600401620037b3565b600060405180830381600087803b1580156200198c57600080fd5b505af1158015620019a1573d6000803e3d6000fd5b505050505050505050505050565b600082815260656020526040902060010154620019cd813362002334565b620009288383620023a3565b600062000f8a836001600160a01b0384166200242d565b6001600160a01b038116331462001a625760405162461bcd60e51b815260206004820152602f60248201527f416363657373436f6e74726f6c3a2063616e206f6e6c792072656e6f756e636560448201526e103937b632b9903337b91039b2b63360891b606482015260840162000659565b62001a6e82826200247f565b5050565b600062000f8a836001600160a01b038416620024e9565b6001600160a01b03848116600090815260cf602052604090205416803b62001aef5760405162461bcd60e51b81526020600482015260186024820152772737903a37b5b2b71031b637b7329037b71039b1b430b4b760411b604482015260640162000659565b60405163e985e9c560e01b81523360048201523060248201526001600160a01b0382169063e985e9c59060440160206040518083038186803b15801562001b3557600080fd5b505afa15801562001b4a573d6000803e3d6000fd5b505050506040513d601f19601f8201168201806040525081019062001b7091906200309b565b62001bba5760405162461bcd60e51b81526020600482015260196024820152782737ba1030b63637bbb2b21022a92198989a9a902a37b5b2b760391b604482015260640162000659565b604051637a94c56560e11b815233600482015260248101849052604481018390526001600160a01b0382169063f5298aca90606401600060405180830381600087803b15801562001c0a57600080fd5b505af115801562001c1f573d6000803e3d6000fd5b5050505060006200193a86868686620025ed565b600054610100900460ff168062001c4d575060005460ff16155b62001c6c5760405162461bcd60e51b81526004016200065990620038bc565b600054610100900460ff1615801562001c8f576000805461ffff19166101011790555b62001c996200263c565b62001ca36200263c565b62001cad6200263c565b62001cb76200263c565b801562001cca576000805461ff00191690555b50565b6200090e8282620026ac565b60008062001cea83850185620030bf565b905062001cf960208262003b41565b62001d1f5762001d1662001d108483818862003a75565b62001cd9565b91505062000619565b62001d1683850185620031b1565b60008062001d3c848462001cd9565b9050600080808080600986600c81111562001d5b5762001d5b62003b7a565b141562001db757600062001d708a8a620026b8565b60408082015160208084015160608501516080909501516001600160a01b03808316600090815260cf9094529490922054929a50985092965091945016915062001f1b9050565b600062001dc58a8a62002774565b805160408082015160208084015160608501516080909501516001600160a01b03808316600090815260cf9094529490922054929b50995092975091955016925090508162001f195760cd54600160a01b900460ff1662001e695760405162461bcd60e51b815260206004820152601c60248201527f4175746f6d61746963206465706c6f792069732064697361626c656400000000604482015260640162000659565b60208101515160405162001e7d9062002bae565b62001e899190620037df565b604051809103906000f08015801562001ea6573d6000803e3d6000fd5b506001600160a01b03868116600081815260cf6020908152604080832080546001600160a01b031916958716958617905584835260d0909152808220805460ff1916600117905551939550919290917ff591ef422bd6af456a3cad967032f043099a7d9838494d88ba15d16a89f50b7491a35b505b60405163731133e960e01b81526001600160a01b0386811660048301526024820185905260448201849052608060648301526000608483015282169063731133e99060a401600060405180830381600087803b15801562001f7b57600080fd5b505af115801562001f90573d6000803e3d6000fd5b50505050806001600160a01b0316846001600160a01b03167f84899afd4ab55115c2eab5a59471e73bc42359e7c3d4e5a3c1aa4837bd20ed5562001fd48662002816565b62001fdf8662002816565b60405162001fef92919062003781565b60405180910390a35092979650505050505050565b60008062002013848462001cd9565b905060008060608082600b86600c81111562002033576200203362003b7a565b14156200208f576000620020488a8a62002860565b60408082015160208084015160608501516080909501516001600160a01b03808316600090815260cf9094529490922054929a509850929650919450169150620021db9050565b60006200209d8a8a62002921565b805160408082015160208084015160608501516080909501516001600160a01b03808316600090815260cf9094529490922054929b509950929750919550169250905081620021d95760cd54600160a01b900460ff16620021415760405162461bcd60e51b815260206004820152601c60248201527f4175746f6d61746963206465706c6f792069732064697361626c656400000000604482015260640162000659565b602081015151604051620021559062002bae565b620021619190620037df565b604051809103906000f0801580156200217e573d6000803e3d6000fd5b506001600160a01b03868116600081815260cf602052604080822080546001600160a01b031916948616948517905551939550919290917ff591ef422bd6af456a3cad967032f043099a7d9838494d88ba15d16a89f50b7491a35b505b604051630fbfeffd60e11b81526001600160a01b03821690631f7fdffa906200220d908890879087906004016200372b565b600060405180830381600087803b1580156200222857600080fd5b505af11580156200223d573d6000803e3d6000fd5b50505050806001600160a01b0316846001600160a01b03167f84899afd4ab55115c2eab5a59471e73bc42359e7c3d4e5a3c1aa4837bd20ed55858560405162001fef92919062003781565b600062000f8a8383620029c8565b600062000619825490565b600082815260656020526040902060010154620022bf813362002334565b6200092883836200247f565b6040805160c081018252600b60a0820190815281526001600160a01b038087166020808401919091529086168284015260608083018690526080830185905292516200231a918391016200390a565b604051602081830303815290604052915050949350505050565b62002340828262000f91565b62001a6e576200235b816001600160a01b03166014620029f5565b62002368836020620029f5565b6040516020016200237b9291906200366e565b60408051601f198184030181529082905262461bcd60e51b82526200065991600401620037df565b620023af828262000f91565b62001a6e5760008281526065602090815260408083206001600160a01b03851684529091529020805460ff19166001179055620023e93390565b6001600160a01b0316816001600160a01b0316837f2f8788117e7eff1d82e926ec794901d17c78024a50270940304540a733656f0d60405160405180910390a45050565b6000818152600183016020526040812054620024765750815460018181018455600084815260208082209093018490558454848252828601909352604090209190915562000619565b50600062000619565b6200248b828262000f91565b1562001a6e5760008281526065602090815260408083206001600160a01b0385168085529252808320805460ff1916905551339285917ff6391f5c32d9c69d2a47ea670b442974b53935d1edc7fd64eb21e047a839171b9190a45050565b60008181526001830160205260408120548015620025e25760006200251060018362003ade565b8554909150600090620025269060019062003ade565b9050818114620025925760008660000182815481106200254a576200254a62003ba6565b906000526020600020015490508087600001848154811062002570576200257062003ba6565b6000918252602080832090910192909255918252600188019052604090208390555b8554869080620025a657620025a662003b90565b60019003818190600052602060002001600090559055856001016000868152602001908152602001600020600090556001935050505062000619565b600091505062000619565b6040805160c081018252600960a0820190815281526001600160a01b038087166020808401919091529086168284015260608083018690526080830185905292516200231a918391016200397c565b600054610100900460ff168062002656575060005460ff16155b620026755760405162461bcd60e51b81526004016200065990620038bc565b600054610100900460ff1615801562001cb7576000805461ffff1916610101179055801562001cca576000805461ff001916905550565b62001a6e8282620023a3565b6040805160c081018252600060a082018181528252602082018190529181018290526060810182905260808101919091526009620026f7848462001cd9565b600c8111156200270b576200270b62003b7a565b14620027665760405162461bcd60e51b8152602060048201526024808201527f4d6573736167652074797065206973206e6f742045524331313535207472616e60448201526339b332b960e11b606482015260840162000659565b62000f8a828401846200358f565b6200277e62002bbc565b600a6200278c848462001cd9565b600c811115620027a057620027a062003b7a565b14620028085760405162461bcd60e51b815260206004820152603060248201527f4d6573736167652074797065206973206e6f742045524331313535416e64546f60448201526f35b2b724b73337903a3930b739b332b960811b606482015260840162000659565b62000f8a8284018462003449565b6040805160018082528183019092526060916020808301908036833701905050905081816000815181106200284f576200284f62003ba6565b602002602001018181525050919050565b6040805160c081018252600060a082018181528252602082018190529181019190915260608082018190526080820152600b6200289e848462001cd9565b600c811115620028b257620028b262003b7a565b14620029135760405162461bcd60e51b815260206004820152602960248201527f4d6573736167652074797065206973206e6f7420455243313135354261746368604482015268103a3930b739b332b960b91b606482015260840162000659565b62000f8a828401846200354f565b6200292b62002c15565b600c62002939848462001cd9565b600c8111156200294d576200294d62003b7a565b14620029ba5760405162461bcd60e51b815260206004820152603560248201527f4d6573736167652074797065206973206e6f742045524331313535426174636860448201527420b7322a37b5b2b724b73337903a3930b739b332b960591b606482015260840162000659565b62000f8a82840184620034d1565b6000826000018281548110620029e257620029e262003ba6565b9060005260206000200154905092915050565b6060600062002a0683600262003abc565b62002a1390600262003aa1565b6001600160401b0381111562002a2d5762002a2d62003bbc565b6040519080825280601f01601f19166020018201604052801562002a58576020820181803683370190505b509050600360fc1b8160008151811062002a765762002a7662003ba6565b60200101906001600160f81b031916908160001a905350600f60fb1b8160018151811062002aa85762002aa862003ba6565b60200101906001600160f81b031916908160001a905350600062002ace84600262003abc565b62002adb90600162003aa1565b90505b600181111562002b5d576f181899199a1a9b1b9c1cb0b131b232b360811b85600f166010811062002b135762002b1362003ba6565b1a60f81b82828151811062002b2c5762002b2c62003ba6565b60200101906001600160f81b031916908160001a90535060049490941c9362002b558162003b27565b905062002ade565b50831562000f8a5760405162461bcd60e51b815260206004820181905260248201527f537472696e67733a20686578206c656e67746820696e73756666696369656e74604482015260640162000659565b6131bb8062003be983390190565b6040805161010081018252600060e08201818152928201928352606082018190526080820181905260a0820181905260c08201529081905b815260200162002c106040518060200160405280606081525090565b905290565b6040805161010081018252600060e082018181529282019283526060808301829052608083019190915260a0820181905260c082015290819062002bf4565b600082601f83011262002c6657600080fd5b813560206001600160401b0382111562002c845762002c8462003bbc565b8160051b62002c9582820162003a42565b83815282810190868401838801850189101562002cb157600080fd5b600093505b8584101562002cd657803583526001939093019291840191840162002cb6565b50979650505050505050565b60008083601f84011262002cf557600080fd5b5081356001600160401b0381111562002d0d57600080fd5b60208301915083602082850101111562002d2657600080fd5b9250929050565b8035600d811062002d3d57600080fd5b919050565b600082601f83011262002d5457600080fd5b81356001600160401b0381111562002d705762002d7062003bbc565b62002d85601f8201601f191660200162003a42565b81815284602083860101111562002d9b57600080fd5b816020850160208301376000918101602001919091529392505050565b60006020828403121562002dcb57600080fd5b62002dd5620039cd565b905062002de28262002d2d565b815292915050565b60006020828403121562002dfd57600080fd5b62002e07620039cd565b905081356001600160401b0381111562002e2057600080fd5b62002e2e8482850162002d42565b82525092915050565b600060a0828403121562002e4a57600080fd5b62002e54620039f8565b905062002e62838362002db8565b8152602082013562002e748162003bd2565b6020820152604082013562002e898162003bd2565b604082015260608201356001600160401b038082111562002ea957600080fd5b62002eb78583860162002c54565b6060840152608084013591508082111562002ed157600080fd5b5062002ee08482850162002c54565b60808301525092915050565b600060a0828403121562002eff57600080fd5b62002f09620039f8565b905062002f17838362002db8565b8152602082013562002f298162003bd2565b6020820152604082013562002f3e8162003bd2565b80604083015250606082013560608201526080820135608082015292915050565b60006020828403121562002f7257600080fd5b813562000f8a8162003bd2565b6000806000806080858703121562002f9657600080fd5b843562002fa38162003bd2565b9350602085013562002fb58162003bd2565b925060408501356001600160401b038082111562002fd257600080fd5b62002fe08883890162002c54565b9350606087013591508082111562002ff757600080fd5b50620030068782880162002c54565b91505092959194509250565b600080600080608085870312156200302957600080fd5b8435620030368162003bd2565b93506020850135620030488162003bd2565b93969395505050506040820135916060013590565b600080604083850312156200307157600080fd5b82356200307e8162003bd2565b91506020830135620030908162003bd2565b809150509250929050565b600060208284031215620030ae57600080fd5b8151801515811462000f8a57600080fd5b600060208284031215620030d257600080fd5b5035919050565b60008060408385031215620030ed57600080fd5b823591506020830135620030908162003bd2565b600080600080606085870312156200311857600080fd5b8435935060208501356200312c8162003bd2565b925060408501356001600160401b038111156200314857600080fd5b620031568782880162002ce2565b95989497509550505050565b600080604083850312156200317657600080fd5b50508035926020909101359150565b6000602082840312156200319857600080fd5b81356001600160e01b03198116811462000f8a57600080fd5b600060208284031215620031c457600080fd5b62000f8a8262002d2d565b60008060208385031215620031e357600080fd5b82356001600160401b03811115620031fa57600080fd5b620032088582860162002ce2565b90969095509350505050565b6000806000604084860312156200322a57600080fd5b83356001600160401b038111156200324157600080fd5b6200324f8682870162002ce2565b9094509250506020840135620032658162003bd2565b809150509250925092565b60008060008060008060a087890312156200328a57600080fd5b86356001600160401b0380821115620032a257600080fd5b620032b08a838b0162002ce2565b909850965060208901359150620032c78262003bd2565b909450604088013590620032db8262003bd2565b90935060608801359080821115620032f257600080fd5b620033008a838b0162002c54565b935060808901359150808211156200331757600080fd5b506200332689828a0162002c54565b9150509295509295509295565b60008060008060008060a087890312156200334d57600080fd5b86356001600160401b038111156200336457600080fd5b6200337289828a0162002ce2565b9097509550506020870135620033888162003bd2565b935060408701356200339a8162003bd2565b959894975092956060810135946080909101359350915050565b600080600080600060a08688031215620033cd57600080fd5b85356001600160401b03811115620033e457600080fd5b620033f28882890162002d42565b9550506020860135620034058162003bd2565b93506040860135620034178162003bd2565b92506060860135620034298162003bd2565b915060808601356200343b8162003bd2565b809150509295509295909350565b6000602082840312156200345c57600080fd5b81356001600160401b03808211156200347457600080fd5b9083019060c082860312156200348957600080fd5b6200349362003a1d565b6200349f868462002eec565b815260a083013582811115620034b457600080fd5b620034c28782860162002dea565b60208301525095945050505050565b600060208284031215620034e457600080fd5b81356001600160401b0380821115620034fc57600080fd5b90830190604082860312156200351157600080fd5b6200351b62003a1d565b8235828111156200352b57600080fd5b620035398782860162002e37565b825250602083013582811115620034b457600080fd5b6000602082840312156200356257600080fd5b81356001600160401b038111156200357957600080fd5b620035878482850162002e37565b949350505050565b600060a08284031215620035a257600080fd5b62000f8a838362002eec565b600081518084526020808501945080840160005b83811015620035e057815187529582019590820190600101620035c2565b509495945050505050565b600081518084526200360581602086016020860162003af8565b601f01601f19169290920160200192915050565b8051600d81106200363a57634e487b7160e01b600052602160045260246000fd5b90915250565b8183823760009101908152919050565b600082516200366481846020870162003af8565b9190910192915050565b7f416363657373436f6e74726f6c3a206163636f756e7420000000000000000000815260008351620036a881601785016020880162003af8565b7001034b99036b4b9b9b4b733903937b6329607d1b6017918401918201528351620036db81602884016020880162003af8565b01602801949350505050565b6001600160a01b03841681526060602082018190526000906200370d90830185620035ae565b8281036040840152620037218185620035ae565b9695505050505050565b6001600160a01b03841681526080602082018190526000906200375190830185620035ae565b8281036040840152620037658185620035ae565b8381036060909401939093525050600081526020019392505050565b604081526000620037966040830185620035ae565b8281036020840152620037aa8185620035ae565b95945050505050565b8381526001600160a01b0383166020820152606060408201819052600090620037aa90830184620035eb565b60208152600062000f8a6020830184620035eb565b6020808252601f908201527f496e636f727265637420546f6b656e204d616e61676572206164647265737300604082015260600190565b60208082526030908201527f546869732066756e6374696f6e206973206e6f7420666f72207472616e73666560408201526f1c9c9a5b99c81d1bc813585a5b9b995d60821b606082015260800190565b60208082526021908201527f4155544f4d415449435f4445504c4f595f524f4c4520697320726571756972656040820152601960fa1b606082015260800190565b6020808252602e908201527f496e697469616c697a61626c653a20636f6e747261637420697320616c72656160408201526d191e481a5b9a5d1a585b1a5e995960921b606082015260800190565b602081526200391e60208201835162003619565b6000602083015160018060a01b0380821660408501528060408601511660608501525050606083015160a060808401526200395d60c0840182620035ae565b90506080840151601f198483030160a0850152620037aa8282620035ae565b600060a0820190506200399182845162003619565b602083015160018060a01b0380821660208501528060408601511660408501525050606083015160608301526080830151608083015292915050565b604051602081016001600160401b0381118282101715620039f257620039f262003bbc565b60405290565b60405160a081016001600160401b0381118282101715620039f257620039f262003bbc565b604080519081016001600160401b0381118282101715620039f257620039f262003bbc565b604051601f8201601f191681016001600160401b038111828210171562003a6d5762003a6d62003bbc565b604052919050565b6000808585111562003a8657600080fd5b8386111562003a9457600080fd5b5050820193919092039150565b6000821982111562003ab75762003ab762003b64565b500190565b600081600019048311821515161562003ad95762003ad962003b64565b500290565b60008282101562003af35762003af362003b64565b500390565b60005b8381101562003b1557818101518382015260200162003afb565b83811115620010815750506000910152565b60008162003b395762003b3962003b64565b506000190190565b60008262003b5f57634e487b7160e01b600052601260045260246000fd5b500690565b634e487b7160e01b600052601160045260246000fd5b634e487b7160e01b600052602160045260246000fd5b634e487b7160e01b600052603160045260246000fd5b634e487b7160e01b600052603260045260246000fd5b634e487b7160e01b600052604160045260246000fd5b6001600160a01b038116811462001cca57600080fdfe60806040523480156200001157600080fd5b50604051620031bb380380620031bb83398101604081905262000034916200073f565b600054610100900460ff16806200004e575060005460ff16155b620000a65760405162461bcd60e51b815260206004820152602e60248201526000805160206200317b83398151915260448201526d191e481a5b9a5d1a585b1a5e995960921b60648201526084015b60405180910390fd5b600054610100900460ff16158015620000c9576000805461ffff19166101011790555b620000de6200015a60201b620009b11760201c565b620000f4826200022960201b62000a3d1760201c565b62000109620002f060201b62000ac31760201c565b620001246000805160206200319b833981519152806200038a565b6200013f6000805160206200319b83398151915233620003de565b801562000152576000805461ff00191690555b50506200086e565b600054610100900460ff168062000174575060005460ff16155b620001c85760405162461bcd60e51b815260206004820152602e60248201526000805160206200317b83398151915260448201526d191e481a5b9a5d1a585b1a5e995960921b60648201526084016200009d565b600054610100900460ff16158015620001eb576000805461ffff19166101011790555b620001f562000421565b620001ff62000421565b6200020962000421565b6200021362000421565b801562000226576000805461ff00191690555b50565b600054610100900460ff168062000243575060005460ff16155b620002975760405162461bcd60e51b815260206004820152602e60248201526000805160206200317b83398151915260448201526d191e481a5b9a5d1a585b1a5e995960921b60648201526084016200009d565b600054610100900460ff16158015620002ba576000805461ffff19166101011790555b620002c462000421565b620002ce62000421565b620002d982620004c6565b8015620002ec576000805461ff00191690555b5050565b600054610100900460ff16806200030a575060005460ff16155b6200035e5760405162461bcd60e51b815260206004820152602e60248201526000805160206200317b83398151915260448201526d191e481a5b9a5d1a585b1a5e995960921b60648201526084016200009d565b600054610100900460ff16158015620001f5576000805461ffff1916610101179055620001ff62000421565b600082815260656020526040902060010154819060405184907fbd79b86ffe0ab8e8776151514217cd7cacd52c909f66475c3af44e129f0b00ff90600090a460009182526065602052604090912060010155565b620003f582826200056260201b62000b211760201c565b60008281526097602090815260409091206200041c91839062000b2b6200056e821b17901c565b505050565b600054610100900460ff16806200043b575060005460ff16155b6200048f5760405162461bcd60e51b815260206004820152602e60248201526000805160206200317b83398151915260448201526d191e481a5b9a5d1a585b1a5e995960921b60648201526084016200009d565b600054610100900460ff1615801562000213576000805461ffff1916610101179055801562000226576000805461ff001916905550565b600054610100900460ff1680620004e0575060005460ff16155b620005345760405162461bcd60e51b815260206004820152602e60248201526000805160206200317b83398151915260448201526d191e481a5b9a5d1a585b1a5e995960921b60648201526084016200009d565b600054610100900460ff1615801562000557576000805461ffff19166101011790555b620002d9826200058e565b620002ec8282620005a3565b600062000585836001600160a01b03841662000647565b90505b92915050565b8051620002ec9060cb90602084019062000699565b60008281526065602090815260408083206001600160a01b038516845290915290205460ff16620002ec5760008281526065602090815260408083206001600160a01b03851684529091529020805460ff19166001179055620006033390565b6001600160a01b0316816001600160a01b0316837f2f8788117e7eff1d82e926ec794901d17c78024a50270940304540a733656f0d60405160405180910390a45050565b6000818152600183016020526040812054620006905750815460018181018455600084815260208082209093018490558454848252828601909352604090209190915562000588565b50600062000588565b828054620006a7906200081b565b90600052602060002090601f016020900481019282620006cb576000855562000716565b82601f10620006e657805160ff191683800117855562000716565b8280016001018555821562000716579182015b8281111562000716578251825591602001919060010190620006f9565b506200072492915062000728565b5090565b5b8082111562000724576000815560010162000729565b600060208083850312156200075357600080fd5b82516001600160401b03808211156200076b57600080fd5b818501915085601f8301126200078057600080fd5b81518181111562000795576200079562000858565b604051601f8201601f19908116603f01168101908382118183101715620007c057620007c062000858565b816040528281528886848701011115620007d957600080fd5b600093505b82841015620007fd5784840186015181850187015292850192620007de565b828411156200080f5760008684830101525b98975050505050505050565b600181811c908216806200083057607f821691505b602082108114156200085257634e487b7160e01b600052602260045260246000fd5b50919050565b634e487b7160e01b600052604160045260246000fd5b6128fd806200087e6000396000f3fe608060405234801561001057600080fd5b50600436106101365760003560e01c8063731133e9116100b8578063ca15c8731161007c578063ca15c873146102b4578063d5391393146102c7578063d547741f146102ee578063e985e9c514610301578063f242432a1461033d578063f5298aca1461035057600080fd5b8063731133e9146102485780639010d07c1461025b57806391d1485414610286578063a217fddf14610299578063a22cb465146102a157600080fd5b80632eb2c2d6116100ff5780632eb2c2d6146101dc5780632f2ff15d146101ef57806336568abe146102025780634e1273f4146102155780636b20c4541461023557600080fd5b8062fdd58e1461013b57806301ffc9a7146101615780630e89341c146101845780631f7fdffa146101a4578063248a9ca3146101b9575b600080fd5b61014e61014936600461200f565b610363565b6040519081526020015b60405180910390f35b61017461016f3660046121f0565b6103ff565b6040519015158152602001610158565b610197610192366004612192565b61040a565b60405161015891906123ea565b6101b76101b2366004611f3a565b61049e565b005b61014e6101c7366004612192565b60009081526065602052604090206001015490565b6101b76101ea366004611db7565b61051f565b6101b76101fd3660046121ab565b6105b6565b6101b76102103660046121ab565b6105dd565b6102286102233660046120c1565b6105ff565b60405161015891906123a9565b6101b7610243366004611ec6565b610729565b6101b761025636600461206c565b61076c565b61026e6102693660046121ce565b6107e7565b6040516001600160a01b039091168152602001610158565b6101746102943660046121ab565b610806565b61014e600081565b6101b76102af366004611fd3565b610831565b61014e6102c2366004612192565b610908565b61014e7f9f2df0fed2c77648de5860a4cc508cd0818c85b8b8a1ab4ceeef8d981c8956a681565b6101b76102fc3660046121ab565b61091f565b61017461030f366004611d84565b6001600160a01b03918216600090815260ca6020908152604080832093909416825291909152205460ff1690565b6101b761034b366004611e61565b610929565b6101b761035e366004612039565b61096e565b60006001600160a01b0383166103d45760405162461bcd60e51b815260206004820152602b60248201527f455243313135353a2062616c616e636520717565727920666f7220746865207a60448201526a65726f206164647265737360a81b60648201526084015b60405180910390fd5b50600081815260c9602090815260408083206001600160a01b03861684529091529020545b92915050565b60006103f982610b40565b606060cb805461041990612730565b80601f016020809104026020016040519081016040528092919081815260200182805461044590612730565b80156104925780601f1061046757610100808354040283529160200191610492565b820191906000526020600020905b81548152906001019060200180831161047557829003601f168201915b50505050509050919050565b6104c87f9f2df0fed2c77648de5860a4cc508cd0818c85b8b8a1ab4ceeef8d981c8956a633610806565b61050d5760405162461bcd60e51b815260206004820152601660248201527529b2b73232b91034b9903737ba10309026b4b73a32b960511b60448201526064016103cb565b61051984848484610b80565b50505050565b6001600160a01b03851633148061053b575061053b853361030f565b6105a25760405162461bcd60e51b815260206004820152603260248201527f455243313135353a207472616e736665722063616c6c6572206973206e6f74206044820152711bdddb995c881b9bdc88185c1c1c9bdd995960721b60648201526084016103cb565b6105af8585858585610ccc565b5050505050565b6105c08282610e6b565b60008281526097602052604090206105d89082610b2b565b505050565b6105e78282610e91565b60008281526097602052604090206105d89082610f0b565b606081518351146106645760405162461bcd60e51b815260206004820152602960248201527f455243313135353a206163636f756e747320616e6420696473206c656e677468604482015268040dad2e6dac2e8c6d60bb1b60648201526084016103cb565b6000835167ffffffffffffffff811115610680576106806127f5565b6040519080825280602002602001820160405280156106a9578160200160208202803683370190505b50905060005b8451811015610721576106f48582815181106106cd576106cd6127df565b60200260200101518583815181106106e7576106e76127df565b6020026020010151610363565b828281518110610706576107066127df565b602090810291909101015261071a81612798565b90506106af565b509392505050565b6001600160a01b0383163314806107455750610745833361030f565b6107615760405162461bcd60e51b81526004016103cb90612489565b6105d8838383610f20565b6107967f9f2df0fed2c77648de5860a4cc508cd0818c85b8b8a1ab4ceeef8d981c8956a633610806565b6107db5760405162461bcd60e51b815260206004820152601660248201527529b2b73232b91034b9903737ba10309026b4b73a32b960511b60448201526064016103cb565b6105198484848461109f565b60008281526097602052604081206107ff9083611171565b9392505050565b60009182526065602090815260408084206001600160a01b0393909316845291905290205460ff1690565b336001600160a01b038316141561089c5760405162461bcd60e51b815260206004820152602960248201527f455243313135353a2073657474696e6720617070726f76616c20737461747573604482015268103337b91039b2b63360b91b60648201526084016103cb565b33600081815260ca602090815260408083206001600160a01b03871680855290835292819020805460ff191686151590811790915590519081529192917f17307eab39ab6107e8899845ad3d59bd9653f200f220920489ca2b5937696c31910160405180910390a35050565b60008181526097602052604081206103f99061117d565b6105e78282611187565b6001600160a01b0385163314806109455750610945853361030f565b6109615760405162461bcd60e51b81526004016103cb90612489565b6105af85858585856111ad565b6001600160a01b03831633148061098a575061098a833361030f565b6109a65760405162461bcd60e51b81526004016103cb90612489565b6105d88383836112ce565b600054610100900460ff16806109ca575060005460ff16155b6109e65760405162461bcd60e51b81526004016103cb90612517565b600054610100900460ff16158015610a08576000805461ffff19166101011790555b610a106113d4565b610a186113d4565b610a206113d4565b610a286113d4565b8015610a3a576000805461ff00191690555b50565b600054610100900460ff1680610a56575060005460ff16155b610a725760405162461bcd60e51b81526004016103cb90612517565b600054610100900460ff16158015610a94576000805461ffff19166101011790555b610a9c6113d4565b610aa46113d4565b610aad8261143e565b8015610abf576000805461ff00191690555b5050565b600054610100900460ff1680610adc575060005460ff16155b610af85760405162461bcd60e51b81526004016103cb90612517565b600054610100900460ff16158015610a10576000805461ffff1916610101179055610a186113d4565b610abf828261149e565b60006107ff836001600160a01b038416611524565b60006001600160e01b03198216636cdb3d1360e11b1480610b7157506001600160e01b031982166303a24d0760e21b145b806103f957506103f982611573565b6001600160a01b038416610ba65760405162461bcd60e51b81526004016103cb9061263a565b8151835114610bc75760405162461bcd60e51b81526004016103cb906125f2565b3360005b8451811015610c6457838181518110610be657610be66127df565b602002602001015160c96000878481518110610c0457610c046127df565b602002602001015181526020019081526020016000206000886001600160a01b03166001600160a01b031681526020019081526020016000206000828254610c4c919061269f565b90915550819050610c5c81612798565b915050610bcb565b50846001600160a01b031660006001600160a01b0316826001600160a01b03167f4a39dc06d4c0dbc64b70af90fd698a233a518aa5d07e595d983b8c0526c8f7fb8787604051610cb59291906123bc565b60405180910390a46105af81600087878787611598565b8151835114610ced5760405162461bcd60e51b81526004016103cb906125f2565b6001600160a01b038416610d135760405162461bcd60e51b81526004016103cb906124d2565b3360005b8451811015610dfd576000858281518110610d3457610d346127df565b602002602001015190506000858381518110610d5257610d526127df565b602090810291909101810151600084815260c9835260408082206001600160a01b038e168352909352919091205490915081811015610da35760405162461bcd60e51b81526004016103cb906125a8565b600083815260c9602090815260408083206001600160a01b038e8116855292528083208585039055908b16825281208054849290610de290849061269f565b9250508190555050505080610df690612798565b9050610d17565b50846001600160a01b0316866001600160a01b0316826001600160a01b03167f4a39dc06d4c0dbc64b70af90fd698a233a518aa5d07e595d983b8c0526c8f7fb8787604051610e4d9291906123bc565b60405180910390a4610e63818787878787611598565b505050505050565b600082815260656020526040902060010154610e878133611703565b6105d8838361149e565b6001600160a01b0381163314610f015760405162461bcd60e51b815260206004820152602f60248201527f416363657373436f6e74726f6c3a2063616e206f6e6c792072656e6f756e636560448201526e103937b632b9903337b91039b2b63360891b60648201526084016103cb565b610abf8282611767565b60006107ff836001600160a01b0384166117ce565b6001600160a01b038316610f465760405162461bcd60e51b81526004016103cb90612565565b8051825114610f675760405162461bcd60e51b81526004016103cb906125f2565b604080516020810190915260009081905233905b8351811015611040576000848281518110610f9857610f986127df565b602002602001015190506000848381518110610fb657610fb66127df565b602090810291909101810151600084815260c9835260408082206001600160a01b038c1683529093529190912054909150818110156110075760405162461bcd60e51b81526004016103cb90612445565b600092835260c9602090815260408085206001600160a01b038b168652909152909220910390558061103881612798565b915050610f7b565b5060006001600160a01b0316846001600160a01b0316826001600160a01b03167f4a39dc06d4c0dbc64b70af90fd698a233a518aa5d07e595d983b8c0526c8f7fb86866040516110919291906123bc565b60405180910390a450505050565b6001600160a01b0384166110c55760405162461bcd60e51b81526004016103cb9061263a565b336110df816000876110d6886118c1565b6105af886118c1565b600084815260c9602090815260408083206001600160a01b03891684529091528120805485929061111190849061269f565b909155505060408051858152602081018590526001600160a01b0380881692600092918516917fc3d58168c5ae7397731d063d5bbf3d657854427343f4c083240f7aacaa2d0f62910160405180910390a46105af8160008787878761190c565b60006107ff83836119d6565b60006103f9825490565b6000828152606560205260409020600101546111a38133611703565b6105d88383611767565b6001600160a01b0384166111d35760405162461bcd60e51b81526004016103cb906124d2565b336111e38187876110d6886118c1565b600084815260c9602090815260408083206001600160a01b038a168452909152902054838110156112265760405162461bcd60e51b81526004016103cb906125a8565b600085815260c9602090815260408083206001600160a01b038b811685529252808320878503905590881682528120805486929061126590849061269f565b909155505060408051868152602081018690526001600160a01b03808916928a821692918616917fc3d58168c5ae7397731d063d5bbf3d657854427343f4c083240f7aacaa2d0f62910160405180910390a46112c582888888888861190c565b50505050505050565b6001600160a01b0383166112f45760405162461bcd60e51b81526004016103cb90612565565b3361132481856000611305876118c1565b61130e876118c1565b5050604080516020810190915260009052505050565b600083815260c9602090815260408083206001600160a01b0388168452909152902054828110156113675760405162461bcd60e51b81526004016103cb90612445565b600084815260c9602090815260408083206001600160a01b03898116808652918452828520888703905582518981529384018890529092908616917fc3d58168c5ae7397731d063d5bbf3d657854427343f4c083240f7aacaa2d0f62910160405180910390a45050505050565b600054610100900460ff16806113ed575060005460ff16155b6114095760405162461bcd60e51b81526004016103cb90612517565b600054610100900460ff16158015610a28576000805461ffff19166101011790558015610a3a576000805461ff001916905550565b600054610100900460ff1680611457575060005460ff16155b6114735760405162461bcd60e51b81526004016103cb90612517565b600054610100900460ff16158015611495576000805461ffff19166101011790555b610aad82611a00565b6114a88282610806565b610abf5760008281526065602090815260408083206001600160a01b03851684529091529020805460ff191660011790556114e03390565b6001600160a01b0316816001600160a01b0316837f2f8788117e7eff1d82e926ec794901d17c78024a50270940304540a733656f0d60405160405180910390a45050565b600081815260018301602052604081205461156b575081546001818101845560008481526020808220909301849055845484825282860190935260409020919091556103f9565b5060006103f9565b60006001600160e01b03198216635a05180f60e01b14806103f957506103f982611a13565b6001600160a01b0384163b15610e635760405163bc197c8160e01b81526001600160a01b0385169063bc197c81906115dc9089908990889088908890600401612306565b602060405180830381600087803b1580156115f657600080fd5b505af1925050508015611626575060408051601f3d908101601f191682019092526116239181019061220d565b60015b6116d35761163261280b565b806308c379a0141561166c5750611647612827565b80611652575061166e565b8060405162461bcd60e51b81526004016103cb91906123ea565b505b60405162461bcd60e51b815260206004820152603460248201527f455243313135353a207472616e7366657220746f206e6f6e20455243313135356044820152732932b1b2b4bb32b91034b6b83632b6b2b73a32b960611b60648201526084016103cb565b6001600160e01b0319811663bc197c8160e01b146112c55760405162461bcd60e51b81526004016103cb906123fd565b61170d8282610806565b610abf57611725816001600160a01b03166014611a48565b611730836020611a48565b604051602001611741929190612291565b60408051601f198184030181529082905262461bcd60e51b82526103cb916004016123ea565b6117718282610806565b15610abf5760008281526065602090815260408083206001600160a01b0385168085529252808320805460ff1916905551339285917ff6391f5c32d9c69d2a47ea670b442974b53935d1edc7fd64eb21e047a839171b9190a45050565b600081815260018301602052604081205480156118b75760006117f26001836126d6565b8554909150600090611806906001906126d6565b905081811461186b576000866000018281548110611826576118266127df565b9060005260206000200154905080876000018481548110611849576118496127df565b6000918252602080832090910192909255918252600188019052604090208390555b855486908061187c5761187c6127c9565b6001900381819060005260206000200160009055905585600101600086815260200190815260200160002060009055600193505050506103f9565b60009150506103f9565b604080516001808252818301909252606091600091906020808301908036833701905050905082816000815181106118fb576118fb6127df565b602090810291909101015292915050565b6001600160a01b0384163b15610e635760405163f23a6e6160e01b81526001600160a01b0385169063f23a6e61906119509089908990889088908890600401612364565b602060405180830381600087803b15801561196a57600080fd5b505af192505050801561199a575060408051601f3d908101601f191682019092526119979181019061220d565b60015b6119a65761163261280b565b6001600160e01b0319811663f23a6e6160e01b146112c55760405162461bcd60e51b81526004016103cb906123fd565b60008260000182815481106119ed576119ed6127df565b9060005260206000200154905092915050565b8051610abf9060cb906020840190611be4565b60006001600160e01b03198216637965db0b60e01b14806103f957506301ffc9a760e01b6001600160e01b03198316146103f9565b60606000611a578360026126b7565b611a6290600261269f565b67ffffffffffffffff811115611a7a57611a7a6127f5565b6040519080825280601f01601f191660200182016040528015611aa4576020820181803683370190505b509050600360fc1b81600081518110611abf57611abf6127df565b60200101906001600160f81b031916908160001a905350600f60fb1b81600181518110611aee57611aee6127df565b60200101906001600160f81b031916908160001a9053506000611b128460026126b7565b611b1d90600161269f565b90505b6001811115611b95576f181899199a1a9b1b9c1cb0b131b232b360811b85600f1660108110611b5157611b516127df565b1a60f81b828281518110611b6757611b676127df565b60200101906001600160f81b031916908160001a90535060049490941c93611b8e81612719565b9050611b20565b5083156107ff5760405162461bcd60e51b815260206004820181905260248201527f537472696e67733a20686578206c656e67746820696e73756666696369656e7460448201526064016103cb565b828054611bf090612730565b90600052602060002090601f016020900481019282611c125760008555611c58565b82601f10611c2b57805160ff1916838001178555611c58565b82800160010185558215611c58579182015b82811115611c58578251825591602001919060010190611c3d565b50611c64929150611c68565b5090565b5b80821115611c645760008155600101611c69565b80356001600160a01b0381168114611c9457600080fd5b919050565b600082601f830112611caa57600080fd5b81356020611cb78261267b565b604051611cc4828261276b565b8381528281019150858301600585901b87018401881015611ce457600080fd5b60005b85811015611d0357813584529284019290840190600101611ce7565b5090979650505050505050565b600082601f830112611d2157600080fd5b813567ffffffffffffffff811115611d3b57611d3b6127f5565b604051611d52601f8301601f19166020018261276b565b818152846020838601011115611d6757600080fd5b816020850160208301376000918101602001919091529392505050565b60008060408385031215611d9757600080fd5b611da083611c7d565b9150611dae60208401611c7d565b90509250929050565b600080600080600060a08688031215611dcf57600080fd5b611dd886611c7d565b9450611de660208701611c7d565b9350604086013567ffffffffffffffff80821115611e0357600080fd5b611e0f89838a01611c99565b94506060880135915080821115611e2557600080fd5b611e3189838a01611c99565b93506080880135915080821115611e4757600080fd5b50611e5488828901611d10565b9150509295509295909350565b600080600080600060a08688031215611e7957600080fd5b611e8286611c7d565b9450611e9060208701611c7d565b93506040860135925060608601359150608086013567ffffffffffffffff811115611eba57600080fd5b611e5488828901611d10565b600080600060608486031215611edb57600080fd5b611ee484611c7d565b9250602084013567ffffffffffffffff80821115611f0157600080fd5b611f0d87838801611c99565b93506040860135915080821115611f2357600080fd5b50611f3086828701611c99565b9150509250925092565b60008060008060808587031215611f5057600080fd5b611f5985611c7d565b9350602085013567ffffffffffffffff80821115611f7657600080fd5b611f8288838901611c99565b94506040870135915080821115611f9857600080fd5b611fa488838901611c99565b93506060870135915080821115611fba57600080fd5b50611fc787828801611d10565b91505092959194509250565b60008060408385031215611fe657600080fd5b611fef83611c7d565b91506020830135801515811461200457600080fd5b809150509250929050565b6000806040838503121561202257600080fd5b61202b83611c7d565b946020939093013593505050565b60008060006060848603121561204e57600080fd5b61205784611c7d565b95602085013595506040909401359392505050565b6000806000806080858703121561208257600080fd5b61208b85611c7d565b93506020850135925060408501359150606085013567ffffffffffffffff8111156120b557600080fd5b611fc787828801611d10565b600080604083850312156120d457600080fd5b823567ffffffffffffffff808211156120ec57600080fd5b818501915085601f83011261210057600080fd5b8135602061210d8261267b565b60405161211a828261276b565b8381528281019150858301600585901b870184018b101561213a57600080fd5b600096505b848710156121645761215081611c7d565b83526001969096019591830191830161213f565b509650508601359250508082111561217b57600080fd5b5061218885828601611c99565b9150509250929050565b6000602082840312156121a457600080fd5b5035919050565b600080604083850312156121be57600080fd5b82359150611dae60208401611c7d565b600080604083850312156121e157600080fd5b50508035926020909101359150565b60006020828403121561220257600080fd5b81356107ff816128b1565b60006020828403121561221f57600080fd5b81516107ff816128b1565b600081518084526020808501945080840160005b8381101561225a5781518752958201959082019060010161223e565b509495945050505050565b6000815180845261227d8160208601602086016126ed565b601f01601f19169290920160200192915050565b7f416363657373436f6e74726f6c3a206163636f756e74200000000000000000008152600083516122c98160178501602088016126ed565b7001034b99036b4b9b9b4b733903937b6329607d1b60179184019182015283516122fa8160288401602088016126ed565b01602801949350505050565b6001600160a01b0386811682528516602082015260a0604082018190526000906123329083018661222a565b8281036060840152612344818661222a565b905082810360808401526123588185612265565b98975050505050505050565b6001600160a01b03868116825285166020820152604081018490526060810183905260a06080820181905260009061239e90830184612265565b979650505050505050565b6020815260006107ff602083018461222a565b6040815260006123cf604083018561222a565b82810360208401526123e1818561222a565b95945050505050565b6020815260006107ff6020830184612265565b60208082526028908201527f455243313135353a204552433131353552656365697665722072656a656374656040820152676420746f6b656e7360c01b606082015260800190565b60208082526024908201527f455243313135353a206275726e20616d6f756e7420657863656564732062616c604082015263616e636560e01b606082015260800190565b60208082526029908201527f455243313135353a2063616c6c6572206973206e6f74206f776e6572206e6f7260408201526808185c1c1c9bdd995960ba1b606082015260800190565b60208082526025908201527f455243313135353a207472616e7366657220746f20746865207a65726f206164604082015264647265737360d81b606082015260800190565b6020808252602e908201527f496e697469616c697a61626c653a20636f6e747261637420697320616c72656160408201526d191e481a5b9a5d1a585b1a5e995960921b606082015260800190565b60208082526023908201527f455243313135353a206275726e2066726f6d20746865207a65726f206164647260408201526265737360e81b606082015260800190565b6020808252602a908201527f455243313135353a20696e73756666696369656e742062616c616e636520666f60408201526939103a3930b739b332b960b11b606082015260800190565b60208082526028908201527f455243313135353a2069647320616e6420616d6f756e7473206c656e677468206040820152670dad2e6dac2e8c6d60c31b606082015260800190565b60208082526021908201527f455243313135353a206d696e7420746f20746865207a65726f206164647265736040820152607360f81b606082015260800190565b600067ffffffffffffffff821115612695576126956127f5565b5060051b60200190565b600082198211156126b2576126b26127b3565b500190565b60008160001904831182151516156126d1576126d16127b3565b500290565b6000828210156126e8576126e86127b3565b500390565b60005b838110156127085781810151838201526020016126f0565b838111156105195750506000910152565b600081612728576127286127b3565b506000190190565b600181811c9082168061274457607f821691505b6020821081141561276557634e487b7160e01b600052602260045260246000fd5b50919050565b601f8201601f1916810167ffffffffffffffff81118282101715612791576127916127f5565b6040525050565b60006000198214156127ac576127ac6127b3565b5060010190565b634e487b7160e01b600052601160045260246000fd5b634e487b7160e01b600052603160045260246000fd5b634e487b7160e01b600052603260045260246000fd5b634e487b7160e01b600052604160045260246000fd5b600060033d11156128245760046000803e5060005160e01c5b90565b600060443d10156128355790565b6040516003193d81016004833e81513d67ffffffffffffffff816024840111818411171561286557505050505090565b828501915081518181111561287d5750505050505090565b843d87010160208285010111156128975750505050505090565b6128a66020828601018761276b565b509095945050505050565b6001600160e01b031981168114610a3a57600080fdfea2646970667358221220e0d8be64188c1da78764bcc3a3b7e90da49bdcc01ddc7a71a5db011eb9b2a4c064736f6c63430008060033496e697469616c697a61626c653a20636f6e747261637420697320616c7265619f2df0fed2c77648de5860a4cc508cd0818c85b8b8a1ab4ceeef8d981c8956a67164765a3c8bd2513bdfa0c90f1bee9606e920fbf2c9071f310263fbd818684ba26469706673582212202f070e52b4b1ae3fdaa9403a8b5c2e83442499cdc38d68abb9699b92497b9f8e64736f6c63430008060033",
  "linkReferences": {},
  "deployedLinkReferences": {}
}